{
  "contractName": "Thicc",
  "abi": [
    {
      "inputs": [],
      "stateMutability": "nonpayable",
      "type": "constructor"
    },
    {
      "anonymous": false,
      "inputs": [
        {
          "indexed": true,
          "internalType": "address",
          "name": "owner",
          "type": "address"
        },
        {
          "indexed": true,
          "internalType": "address",
          "name": "approved",
          "type": "address"
        },
        {
          "indexed": true,
          "internalType": "uint256",
          "name": "tokenId",
          "type": "uint256"
        }
      ],
      "name": "Approval",
      "type": "event"
    },
    {
      "anonymous": false,
      "inputs": [
        {
          "indexed": true,
          "internalType": "address",
          "name": "owner",
          "type": "address"
        },
        {
          "indexed": true,
          "internalType": "address",
          "name": "operator",
          "type": "address"
        },
        {
          "indexed": false,
          "internalType": "bool",
          "name": "approved",
          "type": "bool"
        }
      ],
      "name": "ApprovalForAll",
      "type": "event"
    },
    {
      "anonymous": false,
      "inputs": [
        {
          "indexed": true,
          "internalType": "address",
          "name": "previousOwner",
          "type": "address"
        },
        {
          "indexed": true,
          "internalType": "address",
          "name": "newOwner",
          "type": "address"
        }
      ],
      "name": "OwnershipTransferred",
      "type": "event"
    },
    {
      "anonymous": false,
      "inputs": [
        {
          "indexed": true,
          "internalType": "address",
          "name": "from",
          "type": "address"
        },
        {
          "indexed": true,
          "internalType": "address",
          "name": "to",
          "type": "address"
        },
        {
          "indexed": true,
          "internalType": "uint256",
          "name": "tokenId",
          "type": "uint256"
        }
      ],
      "name": "Transfer",
      "type": "event"
    },
    {
      "inputs": [],
      "name": "_totalSupply",
      "outputs": [
        {
          "internalType": "uint256",
          "name": "",
          "type": "uint256"
        }
      ],
      "stateMutability": "view",
      "type": "function"
    },
    {
      "inputs": [
        {
          "internalType": "address",
          "name": "to",
          "type": "address"
        },
        {
          "internalType": "uint256",
          "name": "tokenId",
          "type": "uint256"
        }
      ],
      "name": "approve",
      "outputs": [],
      "stateMutability": "nonpayable",
      "type": "function"
    },
    {
      "inputs": [
        {
          "internalType": "address",
          "name": "owner",
          "type": "address"
        }
      ],
      "name": "balanceOf",
      "outputs": [
        {
          "internalType": "uint256",
          "name": "",
          "type": "uint256"
        }
      ],
      "stateMutability": "view",
      "type": "function"
    },
    {
      "inputs": [
        {
          "internalType": "uint256",
          "name": "tokenId",
          "type": "uint256"
        }
      ],
      "name": "getApproved",
      "outputs": [
        {
          "internalType": "address",
          "name": "",
          "type": "address"
        }
      ],
      "stateMutability": "view",
      "type": "function"
    },
    {
      "inputs": [
        {
          "internalType": "address",
          "name": "owner",
          "type": "address"
        },
        {
          "internalType": "address",
          "name": "operator",
          "type": "address"
        }
      ],
      "name": "isApprovedForAll",
      "outputs": [
        {
          "internalType": "bool",
          "name": "",
          "type": "bool"
        }
      ],
      "stateMutability": "view",
      "type": "function"
    },
    {
      "inputs": [],
      "name": "maxSupply",
      "outputs": [
        {
          "internalType": "uint256",
          "name": "",
          "type": "uint256"
        }
      ],
      "stateMutability": "view",
      "type": "function"
    },
    {
      "inputs": [],
      "name": "name",
      "outputs": [
        {
          "internalType": "string",
          "name": "",
          "type": "string"
        }
      ],
      "stateMutability": "view",
      "type": "function"
    },
    {
      "inputs": [],
      "name": "owner",
      "outputs": [
        {
          "internalType": "address",
          "name": "",
          "type": "address"
        }
      ],
      "stateMutability": "view",
      "type": "function"
    },
    {
      "inputs": [
        {
          "internalType": "uint256",
          "name": "tokenId",
          "type": "uint256"
        }
      ],
      "name": "ownerOf",
      "outputs": [
        {
          "internalType": "address",
          "name": "",
          "type": "address"
        }
      ],
      "stateMutability": "view",
      "type": "function"
    },
    {
      "inputs": [],
      "name": "renounceOwnership",
      "outputs": [],
      "stateMutability": "nonpayable",
      "type": "function"
    },
    {
      "inputs": [
        {
          "internalType": "address",
          "name": "from",
          "type": "address"
        },
        {
          "internalType": "address",
          "name": "to",
          "type": "address"
        },
        {
          "internalType": "uint256",
          "name": "tokenId",
          "type": "uint256"
        }
      ],
      "name": "safeTransferFrom",
      "outputs": [],
      "stateMutability": "nonpayable",
      "type": "function"
    },
    {
      "inputs": [
        {
          "internalType": "address",
          "name": "from",
          "type": "address"
        },
        {
          "internalType": "address",
          "name": "to",
          "type": "address"
        },
        {
          "internalType": "uint256",
          "name": "tokenId",
          "type": "uint256"
        },
        {
          "internalType": "bytes",
          "name": "_data",
          "type": "bytes"
        }
      ],
      "name": "safeTransferFrom",
      "outputs": [],
      "stateMutability": "nonpayable",
      "type": "function"
    },
    {
      "inputs": [
        {
          "internalType": "address",
          "name": "operator",
          "type": "address"
        },
        {
          "internalType": "bool",
          "name": "approved",
          "type": "bool"
        }
      ],
      "name": "setApprovalForAll",
      "outputs": [],
      "stateMutability": "nonpayable",
      "type": "function"
    },
    {
      "inputs": [
        {
          "internalType": "bytes4",
          "name": "interfaceId",
          "type": "bytes4"
        }
      ],
      "name": "supportsInterface",
      "outputs": [
        {
          "internalType": "bool",
          "name": "",
          "type": "bool"
        }
      ],
      "stateMutability": "view",
      "type": "function"
    },
    {
      "inputs": [],
      "name": "symbol",
      "outputs": [
        {
          "internalType": "string",
          "name": "",
          "type": "string"
        }
      ],
      "stateMutability": "view",
      "type": "function"
    },
    {
      "inputs": [
        {
          "internalType": "uint256",
          "name": "tokenId",
          "type": "uint256"
        }
      ],
      "name": "tokenURI",
      "outputs": [
        {
          "internalType": "string",
          "name": "",
          "type": "string"
        }
      ],
      "stateMutability": "view",
      "type": "function"
    },
    {
      "inputs": [
        {
          "internalType": "address",
          "name": "from",
          "type": "address"
        },
        {
          "internalType": "address",
          "name": "to",
          "type": "address"
        },
        {
          "internalType": "uint256",
          "name": "tokenId",
          "type": "uint256"
        }
      ],
      "name": "transferFrom",
      "outputs": [],
      "stateMutability": "nonpayable",
      "type": "function"
    },
    {
      "inputs": [
        {
          "internalType": "address",
          "name": "newOwner",
          "type": "address"
        }
      ],
      "name": "transferOwnership",
      "outputs": [],
      "stateMutability": "nonpayable",
      "type": "function"
    },
    {
      "inputs": [
        {
          "internalType": "string",
          "name": "_ipfsMetaData",
          "type": "string"
        }
      ],
      "name": "mint",
      "outputs": [
        {
          "internalType": "uint256",
          "name": "",
          "type": "uint256"
        }
      ],
      "stateMutability": "nonpayable",
      "type": "function"
    },
    {
      "inputs": [],
      "name": "totalSupply",
      "outputs": [
        {
          "internalType": "uint256",
          "name": "",
          "type": "uint256"
        }
      ],
      "stateMutability": "nonpayable",
      "type": "function"
    }
  ],
  "bytecode": "0x608060405260056009553480156200001657600080fd5b506040518060400160405280600e81526020017f536f6d657468696e6720436f6f6c0000000000000000000000000000000000008152506040518060400160405280600681526020017f4d4d482d5331000000000000000000000000000000000000000000000000000081525081600090805190602001906200009b929190620001ab565b508060019080519060200190620000b4929190620001ab565b505050620000d7620000cb620000dd60201b60201c565b620000e560201b60201c565b620002c0565b600033905090565b6000600760009054906101000a900473ffffffffffffffffffffffffffffffffffffffff16905081600760006101000a81548173ffffffffffffffffffffffffffffffffffffffff021916908373ffffffffffffffffffffffffffffffffffffffff1602179055508173ffffffffffffffffffffffffffffffffffffffff168173ffffffffffffffffffffffffffffffffffffffff167f8be0079c531659141344cd1fd0a4f28419497f9722a3daafe3b4186f6b6457e060405160405180910390a35050565b828054620001b9906200028a565b90600052602060002090601f016020900481019282620001dd576000855562000229565b82601f10620001f857805160ff191683800117855562000229565b8280016001018555821562000229579182015b82811115620002285782518255916020019190600101906200020b565b5b5090506200023891906200023c565b5090565b5b80821115620002575760008160009055506001016200023d565b5090565b7f4e487b7100000000000000000000000000000000000000000000000000000000600052602260045260246000fd5b60006002820490506001821680620002a357607f821691505b60208210811415620002ba57620002b96200025b565b5b50919050565b61315880620002d06000396000f3fe608060405234801561001057600080fd5b506004361061012c5760003560e01c8063715018a6116100ad578063c87b56dd11610071578063c87b56dd1461031d578063d5abeb011461034d578063d85d3d271461036b578063e985e9c51461039b578063f2fde38b146103cb5761012c565b8063715018a61461029f5780638da5cb5b146102a957806395d89b41146102c7578063a22cb465146102e5578063b88d4fde146103015761012c565b806323b872dd116100f457806323b872dd146101e95780633eaaf86b1461020557806342842e0e146102235780636352211e1461023f57806370a082311461026f5761012c565b806301ffc9a71461013157806306fdde0314610161578063081812fc1461017f578063095ea7b3146101af57806318160ddd146101cb575b600080fd5b61014b60048036038101906101469190611da0565b6103e7565b6040516101589190611de8565b60405180910390f35b6101696104c9565b6040516101769190611e9c565b60405180910390f35b61019960048036038101906101949190611ef4565b61055b565b6040516101a69190611f62565b60405180910390f35b6101c960048036038101906101c49190611fa9565b6105e0565b005b6101d36106f8565b6040516101e09190611ff8565b60405180910390f35b61020360048036038101906101fe9190612013565b61070e565b005b61020d61076e565b60405161021a9190611ff8565b60405180910390f35b61023d60048036038101906102389190612013565b610774565b005b61025960048036038101906102549190611ef4565b610794565b6040516102669190611f62565b60405180910390f35b61028960048036038101906102849190612066565b610846565b6040516102969190611ff8565b60405180910390f35b6102a76108fe565b005b6102b1610986565b6040516102be9190611f62565b60405180910390f35b6102cf6109b0565b6040516102dc9190611e9c565b60405180910390f35b6102ff60048036038101906102fa91906120bf565b610a42565b005b61031b60048036038101906103169190612234565b610a58565b005b61033760048036038101906103329190611ef4565b610aba565b6040516103449190611e9c565b60405180910390f35b610355610c0c565b6040516103629190611ff8565b60405180910390f35b61038560048036038101906103809190612317565b610c12565b6040516103929190611ff8565b60405180910390f35b6103b560048036038101906103b09190612364565b610cdb565b6040516103c29190611de8565b60405180910390f35b6103e560048036038101906103e09190612066565b610d6f565b005b60007f80ac58cd000000000000000000000000000000000000000000000000000000007bffffffffffffffffffffffffffffffffffffffffffffffffffffffff1916827bffffffffffffffffffffffffffffffffffffffffffffffffffffffff191614806104b257507f5b5e139f000000000000000000000000000000000000000000000000000000007bffffffffffffffffffffffffffffffffffffffffffffffffffffffff1916827bffffffffffffffffffffffffffffffffffffffffffffffffffffffff1916145b806104c257506104c182610e67565b5b9050919050565b6060600080546104d8906123d3565b80601f0160208091040260200160405190810160405280929190818152602001828054610504906123d3565b80156105515780601f1061052657610100808354040283529160200191610551565b820191906000526020600020905b81548152906001019060200180831161053457829003601f168201915b5050505050905090565b600061056682610ed1565b6105a5576040517f08c379a000000000000000000000000000000000000000000000000000000000815260040161059c90612477565b60405180910390fd5b6004600083815260200190815260200160002060009054906101000a900473ffffffffffffffffffffffffffffffffffffffff169050919050565b60006105eb82610794565b90508073ffffffffffffffffffffffffffffffffffffffff168373ffffffffffffffffffffffffffffffffffffffff16141561065c576040517f08c379a000000000000000000000000000000000000000000000000000000000815260040161065390612509565b60405180910390fd5b8073ffffffffffffffffffffffffffffffffffffffff1661067b610f3d565b73ffffffffffffffffffffffffffffffffffffffff1614806106aa57506106a9816106a4610f3d565b610cdb565b5b6106e9576040517f08c379a00000000000000000000000000000000000000000000000000000000081526004016106e09061259b565b60405180910390fd5b6106f38383610f45565b505050565b60006107046008610ffe565b600a819055905090565b61071f610719610f3d565b8261100c565b61075e576040517f08c379a00000000000000000000000000000000000000000000000000000000081526004016107559061262d565b60405180910390fd5b6107698383836110ea565b505050565b600a5481565b61078f83838360405180602001604052806000815250610a58565b505050565b6000806002600084815260200190815260200160002060009054906101000a900473ffffffffffffffffffffffffffffffffffffffff169050600073ffffffffffffffffffffffffffffffffffffffff168173ffffffffffffffffffffffffffffffffffffffff16141561083d576040517f08c379a0000000000000000000000000000000000000000000000000000000008152600401610834906126bf565b60405180910390fd5b80915050919050565b60008073ffffffffffffffffffffffffffffffffffffffff168273ffffffffffffffffffffffffffffffffffffffff1614156108b7576040517f08c379a00000000000000000000000000000000000000000000000000000000081526004016108ae90612751565b60405180910390fd5b600360008373ffffffffffffffffffffffffffffffffffffffff1673ffffffffffffffffffffffffffffffffffffffff168152602001908152602001600020549050919050565b610906610f3d565b73ffffffffffffffffffffffffffffffffffffffff16610924610986565b73ffffffffffffffffffffffffffffffffffffffff161461097a576040517f08c379a0000000000000000000000000000000000000000000000000000000008152600401610971906127bd565b60405180910390fd5b6109846000611351565b565b6000600760009054906101000a900473ffffffffffffffffffffffffffffffffffffffff16905090565b6060600180546109bf906123d3565b80601f01602080910402602001604051908101604052809291908181526020018280546109eb906123d3565b8015610a385780601f10610a0d57610100808354040283529160200191610a38565b820191906000526020600020905b815481529060010190602001808311610a1b57829003601f168201915b5050505050905090565b610a54610a4d610f3d565b8383611417565b5050565b610a69610a63610f3d565b8361100c565b610aa8576040517f08c379a0000000000000000000000000000000000000000000000000000000008152600401610a9f9061262d565b60405180910390fd5b610ab484848484611584565b50505050565b6060610ac582610ed1565b610b04576040517f08c379a0000000000000000000000000000000000000000000000000000000008152600401610afb9061284f565b60405180910390fd5b6000600660008481526020019081526020016000208054610b24906123d3565b80601f0160208091040260200160405190810160405280929190818152602001828054610b50906123d3565b8015610b9d5780601f10610b7257610100808354040283529160200191610b9d565b820191906000526020600020905b815481529060010190602001808311610b8057829003601f168201915b505050505090506000610bae6115e0565b9050600081511415610bc4578192505050610c07565b600082511115610bf9578082604051602001610be19291906128ab565b60405160208183030381529060405292505050610c07565b610c02846115f7565b925050505b919050565b60095481565b6000610c1e6008610ffe565b60095411610c61576040517f08c379a0000000000000000000000000000000000000000000000000000000008152600401610c589061291b565b60405180910390fd5b610c6b600861169e565b6000610c776008610ffe565b9050610c8333826116b4565b610cd18185858080601f016020809104026020016040519081016040528093929190818152602001838380828437600081840152601f19601f820116905080830192505050505050506116d2565b8091505092915050565b6000600560008473ffffffffffffffffffffffffffffffffffffffff1673ffffffffffffffffffffffffffffffffffffffff16815260200190815260200160002060008373ffffffffffffffffffffffffffffffffffffffff1673ffffffffffffffffffffffffffffffffffffffff16815260200190815260200160002060009054906101000a900460ff16905092915050565b610d77610f3d565b73ffffffffffffffffffffffffffffffffffffffff16610d95610986565b73ffffffffffffffffffffffffffffffffffffffff1614610deb576040517f08c379a0000000000000000000000000000000000000000000000000000000008152600401610de2906127bd565b60405180910390fd5b600073ffffffffffffffffffffffffffffffffffffffff168173ffffffffffffffffffffffffffffffffffffffff161415610e5b576040517f08c379a0000000000000000000000000000000000000000000000000000000008152600401610e52906129ad565b60405180910390fd5b610e6481611351565b50565b60007f01ffc9a7000000000000000000000000000000000000000000000000000000007bffffffffffffffffffffffffffffffffffffffffffffffffffffffff1916827bffffffffffffffffffffffffffffffffffffffffffffffffffffffff1916149050919050565b60008073ffffffffffffffffffffffffffffffffffffffff166002600084815260200190815260200160002060009054906101000a900473ffffffffffffffffffffffffffffffffffffffff1673ffffffffffffffffffffffffffffffffffffffff1614159050919050565b600033905090565b816004600083815260200190815260200160002060006101000a81548173ffffffffffffffffffffffffffffffffffffffff021916908373ffffffffffffffffffffffffffffffffffffffff160217905550808273ffffffffffffffffffffffffffffffffffffffff16610fb883610794565b73ffffffffffffffffffffffffffffffffffffffff167f8c5be1e5ebec7d5bd14f71427d1e84f3dd0314c0f7b2291e5b200ac8c7c3b92560405160405180910390a45050565b600081600001549050919050565b600061101782610ed1565b611056576040517f08c379a000000000000000000000000000000000000000000000000000000000815260040161104d90612a3f565b60405180910390fd5b600061106183610794565b90508073ffffffffffffffffffffffffffffffffffffffff168473ffffffffffffffffffffffffffffffffffffffff1614806110d057508373ffffffffffffffffffffffffffffffffffffffff166110b88461055b565b73ffffffffffffffffffffffffffffffffffffffff16145b806110e157506110e08185610cdb565b5b91505092915050565b8273ffffffffffffffffffffffffffffffffffffffff1661110a82610794565b73ffffffffffffffffffffffffffffffffffffffff1614611160576040517f08c379a000000000000000000000000000000000000000000000000000000000815260040161115790612ad1565b60405180910390fd5b600073ffffffffffffffffffffffffffffffffffffffff168273ffffffffffffffffffffffffffffffffffffffff1614156111d0576040517f08c379a00000000000000000000000000000000000000000000000000000000081526004016111c790612b63565b60405180910390fd5b6111db838383611746565b6111e6600082610f45565b6001600360008573ffffffffffffffffffffffffffffffffffffffff1673ffffffffffffffffffffffffffffffffffffffff16815260200190815260200160002060008282546112369190612bb2565b925050819055506001600360008473ffffffffffffffffffffffffffffffffffffffff1673ffffffffffffffffffffffffffffffffffffffff168152602001908152602001600020600082825461128d9190612be6565b92505081905550816002600083815260200190815260200160002060006101000a81548173ffffffffffffffffffffffffffffffffffffffff021916908373ffffffffffffffffffffffffffffffffffffffff160217905550808273ffffffffffffffffffffffffffffffffffffffff168473ffffffffffffffffffffffffffffffffffffffff167fddf252ad1be2c89b69c2b068fc378daa952ba7f163c4a11628f55a4df523b3ef60405160405180910390a461134c83838361174b565b505050565b6000600760009054906101000a900473ffffffffffffffffffffffffffffffffffffffff16905081600760006101000a81548173ffffffffffffffffffffffffffffffffffffffff021916908373ffffffffffffffffffffffffffffffffffffffff1602179055508173ffffffffffffffffffffffffffffffffffffffff168173ffffffffffffffffffffffffffffffffffffffff167f8be0079c531659141344cd1fd0a4f28419497f9722a3daafe3b4186f6b6457e060405160405180910390a35050565b8173ffffffffffffffffffffffffffffffffffffffff168373ffffffffffffffffffffffffffffffffffffffff161415611486576040517f08c379a000000000000000000000000000000000000000000000000000000000815260040161147d90612c88565b60405180910390fd5b80600560008573ffffffffffffffffffffffffffffffffffffffff1673ffffffffffffffffffffffffffffffffffffffff16815260200190815260200160002060008473ffffffffffffffffffffffffffffffffffffffff1673ffffffffffffffffffffffffffffffffffffffff16815260200190815260200160002060006101000a81548160ff0219169083151502179055508173ffffffffffffffffffffffffffffffffffffffff168373ffffffffffffffffffffffffffffffffffffffff167f17307eab39ab6107e8899845ad3d59bd9653f200f220920489ca2b5937696c31836040516115779190611de8565b60405180910390a3505050565b61158f8484846110ea565b61159b84848484611750565b6115da576040517f08c379a00000000000000000000000000000000000000000000000000000000081526004016115d190612d1a565b60405180910390fd5b50505050565b606060405180602001604052806000815250905090565b606061160282610ed1565b611641576040517f08c379a000000000000000000000000000000000000000000000000000000000815260040161163890612dac565b60405180910390fd5b600061164b6115e0565b9050600081511161166b5760405180602001604052806000815250611696565b80611675846118d8565b6040516020016116869291906128ab565b6040516020818303038152906040525b915050919050565b6001816000016000828254019250508190555050565b6116ce828260405180602001604052806000815250611a39565b5050565b6116db82610ed1565b61171a576040517f08c379a000000000000000000000000000000000000000000000000000000000815260040161171190612e3e565b60405180910390fd5b80600660008481526020019081526020016000209080519060200190611741929190611c91565b505050565b505050565b505050565b60006117718473ffffffffffffffffffffffffffffffffffffffff16611a94565b156118cb578373ffffffffffffffffffffffffffffffffffffffff1663150b7a0261179a610f3d565b8786866040518563ffffffff1660e01b81526004016117bc9493929190612eb3565b6020604051808303816000875af19250505080156117f857506040513d601f19601f820116820180604052508101906117f59190612f14565b60015b61187b573d8060008114611828576040519150601f19603f3d011682016040523d82523d6000602084013e61182d565b606091505b50600081511415611873576040517f08c379a000000000000000000000000000000000000000000000000000000000815260040161186a90612d1a565b60405180910390fd5b805181602001fd5b63150b7a0260e01b7bffffffffffffffffffffffffffffffffffffffffffffffffffffffff1916817bffffffffffffffffffffffffffffffffffffffffffffffffffffffff1916149150506118d0565b600190505b949350505050565b60606000821415611920576040518060400160405280600181526020017f30000000000000000000000000000000000000000000000000000000000000008152509050611a34565b600082905060005b6000821461195257808061193b90612f41565b915050600a8261194b9190612fb9565b9150611928565b60008167ffffffffffffffff81111561196e5761196d612109565b5b6040519080825280601f01601f1916602001820160405280156119a05781602001600182028036833780820191505090505b5090505b60008514611a2d576001826119b99190612bb2565b9150600a856119c89190612fea565b60306119d49190612be6565b60f81b8183815181106119ea576119e961301b565b5b60200101907effffffffffffffffffffffffffffffffffffffffffffffffffffffffffffff1916908160001a905350600a85611a269190612fb9565b94506119a4565b8093505050505b919050565b611a438383611ab7565b611a506000848484611750565b611a8f576040517f08c379a0000000000000000000000000000000000000000000000000000000008152600401611a8690612d1a565b60405180910390fd5b505050565b6000808273ffffffffffffffffffffffffffffffffffffffff163b119050919050565b600073ffffffffffffffffffffffffffffffffffffffff168273ffffffffffffffffffffffffffffffffffffffff161415611b27576040517f08c379a0000000000000000000000000000000000000000000000000000000008152600401611b1e90613096565b60405180910390fd5b611b3081610ed1565b15611b70576040517f08c379a0000000000000000000000000000000000000000000000000000000008152600401611b6790613102565b60405180910390fd5b611b7c60008383611746565b6001600360008473ffffffffffffffffffffffffffffffffffffffff1673ffffffffffffffffffffffffffffffffffffffff1681526020019081526020016000206000828254611bcc9190612be6565b92505081905550816002600083815260200190815260200160002060006101000a81548173ffffffffffffffffffffffffffffffffffffffff021916908373ffffffffffffffffffffffffffffffffffffffff160217905550808273ffffffffffffffffffffffffffffffffffffffff16600073ffffffffffffffffffffffffffffffffffffffff167fddf252ad1be2c89b69c2b068fc378daa952ba7f163c4a11628f55a4df523b3ef60405160405180910390a4611c8d6000838361174b565b5050565b828054611c9d906123d3565b90600052602060002090601f016020900481019282611cbf5760008555611d06565b82601f10611cd857805160ff1916838001178555611d06565b82800160010185558215611d06579182015b82811115611d05578251825591602001919060010190611cea565b5b509050611d139190611d17565b5090565b5b80821115611d30576000816000905550600101611d18565b5090565b6000604051905090565b600080fd5b600080fd5b60007fffffffff0000000000000000000000000000000000000000000000000000000082169050919050565b611d7d81611d48565b8114611d8857600080fd5b50565b600081359050611d9a81611d74565b92915050565b600060208284031215611db657611db5611d3e565b5b6000611dc484828501611d8b565b91505092915050565b60008115159050919050565b611de281611dcd565b82525050565b6000602082019050611dfd6000830184611dd9565b92915050565b600081519050919050565b600082825260208201905092915050565b60005b83811015611e3d578082015181840152602081019050611e22565b83811115611e4c576000848401525b50505050565b6000601f19601f8301169050919050565b6000611e6e82611e03565b611e788185611e0e565b9350611e88818560208601611e1f565b611e9181611e52565b840191505092915050565b60006020820190508181036000830152611eb68184611e63565b905092915050565b6000819050919050565b611ed181611ebe565b8114611edc57600080fd5b50565b600081359050611eee81611ec8565b92915050565b600060208284031215611f0a57611f09611d3e565b5b6000611f1884828501611edf565b91505092915050565b600073ffffffffffffffffffffffffffffffffffffffff82169050919050565b6000611f4c82611f21565b9050919050565b611f5c81611f41565b82525050565b6000602082019050611f776000830184611f53565b92915050565b611f8681611f41565b8114611f9157600080fd5b50565b600081359050611fa381611f7d565b92915050565b60008060408385031215611fc057611fbf611d3e565b5b6000611fce85828601611f94565b9250506020611fdf85828601611edf565b9150509250929050565b611ff281611ebe565b82525050565b600060208201905061200d6000830184611fe9565b92915050565b60008060006060848603121561202c5761202b611d3e565b5b600061203a86828701611f94565b935050602061204b86828701611f94565b925050604061205c86828701611edf565b9150509250925092565b60006020828403121561207c5761207b611d3e565b5b600061208a84828501611f94565b91505092915050565b61209c81611dcd565b81146120a757600080fd5b50565b6000813590506120b981612093565b92915050565b600080604083850312156120d6576120d5611d3e565b5b60006120e485828601611f94565b92505060206120f5858286016120aa565b9150509250929050565b600080fd5b600080fd5b7f4e487b7100000000000000000000000000000000000000000000000000000000600052604160045260246000fd5b61214182611e52565b810181811067ffffffffffffffff821117156121605761215f612109565b5b80604052505050565b6000612173611d34565b905061217f8282612138565b919050565b600067ffffffffffffffff82111561219f5761219e612109565b5b6121a882611e52565b9050602081019050919050565b82818337600083830152505050565b60006121d76121d284612184565b612169565b9050828152602081018484840111156121f3576121f2612104565b5b6121fe8482856121b5565b509392505050565b600082601f83011261221b5761221a6120ff565b5b813561222b8482602086016121c4565b91505092915050565b6000806000806080858703121561224e5761224d611d3e565b5b600061225c87828801611f94565b945050602061226d87828801611f94565b935050604061227e87828801611edf565b925050606085013567ffffffffffffffff81111561229f5761229e611d43565b5b6122ab87828801612206565b91505092959194509250565b600080fd5b600080fd5b60008083601f8401126122d7576122d66120ff565b5b8235905067ffffffffffffffff8111156122f4576122f36122b7565b5b6020830191508360018202830111156123105761230f6122bc565b5b9250929050565b6000806020838503121561232e5761232d611d3e565b5b600083013567ffffffffffffffff81111561234c5761234b611d43565b5b612358858286016122c1565b92509250509250929050565b6000806040838503121561237b5761237a611d3e565b5b600061238985828601611f94565b925050602061239a85828601611f94565b9150509250929050565b7f4e487b7100000000000000000000000000000000000000000000000000000000600052602260045260246000fd5b600060028204905060018216806123eb57607f821691505b602082108114156123ff576123fe6123a4565b5b50919050565b7f4552433732313a20617070726f76656420717565727920666f72206e6f6e657860008201527f697374656e7420746f6b656e0000000000000000000000000000000000000000602082015250565b6000612461602c83611e0e565b915061246c82612405565b604082019050919050565b6000602082019050818103600083015261249081612454565b9050919050565b7f4552433732313a20617070726f76616c20746f2063757272656e74206f776e6560008201527f7200000000000000000000000000000000000000000000000000000000000000602082015250565b60006124f3602183611e0e565b91506124fe82612497565b604082019050919050565b60006020820190508181036000830152612522816124e6565b9050919050565b7f4552433732313a20617070726f76652063616c6c6572206973206e6f74206f7760008201527f6e6572206e6f7220617070726f76656420666f7220616c6c0000000000000000602082015250565b6000612585603883611e0e565b915061259082612529565b604082019050919050565b600060208201905081810360008301526125b481612578565b9050919050565b7f4552433732313a207472616e736665722063616c6c6572206973206e6f74206f60008201527f776e6572206e6f7220617070726f766564000000000000000000000000000000602082015250565b6000612617603183611e0e565b9150612622826125bb565b604082019050919050565b600060208201905081810360008301526126468161260a565b9050919050565b7f4552433732313a206f776e657220717565727920666f72206e6f6e657869737460008201527f656e7420746f6b656e0000000000000000000000000000000000000000000000602082015250565b60006126a9602983611e0e565b91506126b48261264d565b604082019050919050565b600060208201905081810360008301526126d88161269c565b9050919050565b7f4552433732313a2062616c616e636520717565727920666f7220746865207a6560008201527f726f206164647265737300000000000000000000000000000000000000000000602082015250565b600061273b602a83611e0e565b9150612746826126df565b604082019050919050565b6000602082019050818103600083015261276a8161272e565b9050919050565b7f4f776e61626c653a2063616c6c6572206973206e6f7420746865206f776e6572600082015250565b60006127a7602083611e0e565b91506127b282612771565b602082019050919050565b600060208201905081810360008301526127d68161279a565b9050919050565b7f45524337323155524953746f726167653a2055524920717565727920666f722060008201527f6e6f6e6578697374656e7420746f6b656e000000000000000000000000000000602082015250565b6000612839603183611e0e565b9150612844826127dd565b604082019050919050565b600060208201905081810360008301526128688161282c565b9050919050565b600081905092915050565b600061288582611e03565b61288f818561286f565b935061289f818560208601611e1f565b80840191505092915050565b60006128b7828561287a565b91506128c3828461287a565b91508190509392505050565b7f416c6c20746f6b656e7320686173206265656e206d696e746564210000000000600082015250565b6000612905601b83611e0e565b9150612910826128cf565b602082019050919050565b60006020820190508181036000830152612934816128f8565b9050919050565b7f4f776e61626c653a206e6577206f776e657220697320746865207a65726f206160008201527f6464726573730000000000000000000000000000000000000000000000000000602082015250565b6000612997602683611e0e565b91506129a28261293b565b604082019050919050565b600060208201905081810360008301526129c68161298a565b9050919050565b7f4552433732313a206f70657261746f7220717565727920666f72206e6f6e657860008201527f697374656e7420746f6b656e0000000000000000000000000000000000000000602082015250565b6000612a29602c83611e0e565b9150612a34826129cd565b604082019050919050565b60006020820190508181036000830152612a5881612a1c565b9050919050565b7f4552433732313a207472616e736665722066726f6d20696e636f72726563742060008201527f6f776e6572000000000000000000000000000000000000000000000000000000602082015250565b6000612abb602583611e0e565b9150612ac682612a5f565b604082019050919050565b60006020820190508181036000830152612aea81612aae565b9050919050565b7f4552433732313a207472616e7366657220746f20746865207a65726f2061646460008201527f7265737300000000000000000000000000000000000000000000000000000000602082015250565b6000612b4d602483611e0e565b9150612b5882612af1565b604082019050919050565b60006020820190508181036000830152612b7c81612b40565b9050919050565b7f4e487b7100000000000000000000000000000000000000000000000000000000600052601160045260246000fd5b6000612bbd82611ebe565b9150612bc883611ebe565b925082821015612bdb57612bda612b83565b5b828203905092915050565b6000612bf182611ebe565b9150612bfc83611ebe565b9250827fffffffffffffffffffffffffffffffffffffffffffffffffffffffffffffffff03821115612c3157612c30612b83565b5b828201905092915050565b7f4552433732313a20617070726f766520746f2063616c6c657200000000000000600082015250565b6000612c72601983611e0e565b9150612c7d82612c3c565b602082019050919050565b60006020820190508181036000830152612ca181612c65565b9050919050565b7f4552433732313a207472616e7366657220746f206e6f6e20455243373231526560008201527f63656976657220696d706c656d656e7465720000000000000000000000000000602082015250565b6000612d04603283611e0e565b9150612d0f82612ca8565b604082019050919050565b60006020820190508181036000830152612d3381612cf7565b9050919050565b7f4552433732314d657461646174613a2055524920717565727920666f72206e6f60008201527f6e6578697374656e7420746f6b656e0000000000000000000000000000000000602082015250565b6000612d96602f83611e0e565b9150612da182612d3a565b604082019050919050565b60006020820190508181036000830152612dc581612d89565b9050919050565b7f45524337323155524953746f726167653a2055524920736574206f66206e6f6e60008201527f6578697374656e7420746f6b656e000000000000000000000000000000000000602082015250565b6000612e28602e83611e0e565b9150612e3382612dcc565b604082019050919050565b60006020820190508181036000830152612e5781612e1b565b9050919050565b600081519050919050565b600082825260208201905092915050565b6000612e8582612e5e565b612e8f8185612e69565b9350612e9f818560208601611e1f565b612ea881611e52565b840191505092915050565b6000608082019050612ec86000830187611f53565b612ed56020830186611f53565b612ee26040830185611fe9565b8181036060830152612ef48184612e7a565b905095945050505050565b600081519050612f0e81611d74565b92915050565b600060208284031215612f2a57612f29611d3e565b5b6000612f3884828501612eff565b91505092915050565b6000612f4c82611ebe565b91507fffffffffffffffffffffffffffffffffffffffffffffffffffffffffffffffff821415612f7f57612f7e612b83565b5b600182019050919050565b7f4e487b7100000000000000000000000000000000000000000000000000000000600052601260045260246000fd5b6000612fc482611ebe565b9150612fcf83611ebe565b925082612fdf57612fde612f8a565b5b828204905092915050565b6000612ff582611ebe565b915061300083611ebe565b9250826130105761300f612f8a565b5b828206905092915050565b7f4e487b7100000000000000000000000000000000000000000000000000000000600052603260045260246000fd5b7f4552433732313a206d696e7420746f20746865207a65726f2061646472657373600082015250565b6000613080602083611e0e565b915061308b8261304a565b602082019050919050565b600060208201905081810360008301526130af81613073565b9050919050565b7f4552433732313a20746f6b656e20616c7265616479206d696e74656400000000600082015250565b60006130ec601c83611e0e565b91506130f7826130b6565b602082019050919050565b6000602082019050818103600083015261311b816130df565b905091905056fea2646970667358221220680c69181c8df41cafcbe4ff2a2c715bbe223ff3d47e178ef1c11c546d920ae164736f6c634300080b0033",
  "immutableReferences": {},
  "source": "// SPDX-License-Identifier: MIT\npragma solidity ^0.8.0;\n\nimport \"@openzeppelin/contracts/token/ERC721/ERC721.sol\";\nimport \"@openzeppelin/contracts/token/ERC721/extensions/ERC721URIStorage.sol\";\nimport \"@openzeppelin/contracts/utils/Counters.sol\";\nimport \"@openzeppelin/contracts/access/Ownable.sol\";\n\ncontract Thicc is ERC721URIStorage, Ownable {\n  using Counters for Counters.Counter;\n  Counters.Counter private tokenIds;\n  uint256 public maxSupply = 5;\n  uint public _totalSupply;\n\nconstructor() ERC721(\"Something Cool\", \"MMH-S1\") {\n}\n\nfunction mint(string calldata _ipfsMetaData) public returns(uint256) {\n      require(maxSupply > tokenIds.current(), \"All tokens has been minted!\");\n      tokenIds.increment();\n      uint256 currentTokenId = tokenIds.current();\n      _safeMint(msg.sender, currentTokenId);\n      _setTokenURI(currentTokenId, _ipfsMetaData);\n      return currentTokenId;\n    }\n\nfunction totalSupply() public returns(uint256) {\n    return _totalSupply = tokenIds.current();\n}\n}",
  "sourcePath": "/Users/willmcdonnell/sei/projects/mmh-s1/contracts/Mmh.sol",
  "compiler": {
    "name": "solc",
    "version": "0.8.11+commit.d7f03943.Emscripten.clang"
  },
  "schemaVersion": "3.4.4",
  "updatedAt": "2022-02-10T01:06:55.487Z",
  "devdoc": {
    "kind": "dev",
    "methods": {
      "approve(address,uint256)": {
        "details": "See {IERC721-approve}."
      },
      "balanceOf(address)": {
        "details": "See {IERC721-balanceOf}."
      },
      "getApproved(uint256)": {
        "details": "See {IERC721-getApproved}."
      },
      "isApprovedForAll(address,address)": {
        "details": "See {IERC721-isApprovedForAll}."
      },
      "name()": {
        "details": "See {IERC721Metadata-name}."
      },
      "owner()": {
        "details": "Returns the address of the current owner."
      },
      "ownerOf(uint256)": {
        "details": "See {IERC721-ownerOf}."
      },
      "renounceOwnership()": {
        "details": "Leaves the contract without owner. It will not be possible to call `onlyOwner` functions anymore. Can only be called by the current owner. NOTE: Renouncing ownership will leave the contract without an owner, thereby removing any functionality that is only available to the owner."
      },
      "safeTransferFrom(address,address,uint256)": {
        "details": "See {IERC721-safeTransferFrom}."
      },
      "safeTransferFrom(address,address,uint256,bytes)": {
        "details": "See {IERC721-safeTransferFrom}."
      },
      "setApprovalForAll(address,bool)": {
        "details": "See {IERC721-setApprovalForAll}."
      },
      "supportsInterface(bytes4)": {
        "details": "See {IERC165-supportsInterface}."
      },
      "symbol()": {
        "details": "See {IERC721Metadata-symbol}."
      },
      "tokenURI(uint256)": {
        "details": "See {IERC721Metadata-tokenURI}."
      },
      "transferFrom(address,address,uint256)": {
        "details": "See {IERC721-transferFrom}."
      },
      "transferOwnership(address)": {
        "details": "Transfers ownership of the contract to a new account (`newOwner`). Can only be called by the current owner."
      }
    },
    "version": 1
  },
  "userdoc": {
    "kind": "user",
    "methods": {},
    "version": 1
  }
}